:020000040000fa
:080000000002040000000000f2
:020000040000fa
:0400080024040000cc
:020000040000fa
:04000c0000030000ed
:020000040000fa
:0400100042030000a7
:020000040000fa
:0400140020030000c5
:020000040000fa
:04001800620300007f
:020000040000fa
:04001c0024040000b8
:020000040000fa
:0400200024040000b4
:020000040000fa
:0400240024040000b0
:020000040000fa
:0400280024040000ac
:020000040000fa
:04002c0024040000a8
:020000040000fa
:0400300024040000a4
:020000040000fa
:04003400b80300000d
:020000040000fa
:04003800240400009c
:020000040000fa
:04003c002404000098
:020000040000fa
:040040002404000094
:020000040000fa
:040044008203000033
:020000040000fa
:04004800ee030000c3
:020000040000fa
:04004c002404000088
:020000040000fa
:040050002404000084
:020000040000fa
:040054002404000080
:020000040000fa
:04005800240400007c
:020000040000fa
:04005c002404000078
:020000040000fa
:040060002404000074
:020000040000fa
:040064002404000070
:020000040000fa
:04006800240400006c
:020000040000fa
:04006c002404000068
:020000040000fa
:040070002404000064
:020000040000fa
:040074002404000060
:020000040000fa
:04007800240400005c
:020000040000fa
:04007c002404000058
:020000040000fa
:040080002404000054
:020000040000fa
:040084002404000050
:020000040000fa
:04008800240400004c
:020000040000fa
:04008c002404000048
:020000040000fa
:040090002404000044
:020000040000fa
:040094002404000040
:020000040000fa
:04009800240400003c
:020000040000fa
:04009c002404000038
:020000040000fa
:0400a0002404000034
:020000040000fa
:0400a4002404000030
:020000040000fa
:0400a800240400002c
:020000040000fa
:0400ac002404000028
:020000040000fa
:0400b0002404000024
:020000040000fa
:0400b4002404000020
:020000040000fa
:0400b800240400001c
:020000040000fa
:0400bc002404000018
:020000040000fa
:0400c0002404000014
:020000040000fa
:0400c4002404000010
:020000040000fa
:0400c800240400000c
:020000040000fa
:0400cc002404000008
:020000040000fa
:0400d0002404000004
:020000040000fa
:0400d4002404000000
:020000040000fa
:0400d80024040000fc
:020000040000fa
:0400dc0024040000f8
:020000040000fa
:0400e00024040000f4
:020000040000fa
:0400e40024040000f0
:020000040000fa
:0400e80024040000ec
:020000040000fa
:0400ec0024040000e8
:020000040000fa
:0400f00024040000e4
:020000040000fa
:0400f40024040000e0
:020000040000fa
:0400f80024040000dc
:020000040000fa
:0400fc0024040000d8
:020000040000fa
:0401000024040000d3
:020000040000fa
:0401040024040000cf
:020000040000fa
:0401080024040000cb
:020000040000fa
:04010c0024040000c7
:020000040000fa
:0401100024040000c3
:020000040000fa
:0401140024040000bf
:020000040000fa
:0401180024040000bb
:020000040000fa
:04011c0024040000b7
:020000040000fa
:0401200024040000b3
:020000040000fa
:0401240024040000af
:020000040000fa
:0401280024040000ab
:020000040000fa
:04012c0024040000a7
:020000040000fa
:0401300024040000a3
:020000040000fa
:04013400240400009f
:020000040000fa
:04013800240400009b
:020000040000fa
:04013c002404000097
:020000040000fa
:040140002404000093
:020000040000fa
:04014400240400008f
:020000040000fa
:04014800240400008b
:020000040000fa
:04014c002404000087
:020000040000fa
:040150002404000083
:020000040000fa
:04015400240400007f
:020000040000fa
:04015800240400007b
:020000040000fa
:04015c002404000077
:020000040000fa
:040160002404000073
:020000040000fa
:04016400240400006f
:020000040000fa
:04016800240400006b
:020000040000fa
:04016c002404000067
:020000040000fa
:040170002404000063
:020000040000fa
:04017400240400005f
:020000040000fa
:04017800240400005b
:020000040000fa
:04017c002404000057
:020000040000fa
:040180002404000053
:020000040000fa
:0402080024040000ca
:020000040000fa
:04020c0000030000eb
:020000040000fa
:0402100042030000a5
:020000040000fa
:0402140020030000c3
:020000040000fa
:04021800620300007d
:020000040000fa
:04021c0024040000b6
:020000040000fa
:0402200024040000b2
:020000040000fa
:0402240024040000ae
:020000040000fa
:0402280024040000aa
:020000040000fa
:04022c0024040000a6
:020000040000fa
:0402300024040000a2
:020000040000fa
:04023400b80300000b
:020000040000fa
:04023800240400009a
:020000040000fa
:04023c002404000096
:020000040000fa
:040240002404000092
:020000040000fa
:040244008203000031
:020000040000fa
:04024800ee030000c1
:020000040000fa
:04024c002404000086
:020000040000fa
:040250002404000082
:020000040000fa
:04025400240400007e
:020000040000fa
:04025800240400007a
:020000040000fa
:04025c002404000076
:020000040000fa
:040260002404000072
:020000040000fa
:04026400240400006e
:020000040000fa
:04026800240400006a
:020000040000fa
:04026c002404000066
:020000040000fa
:040270002404000062
:020000040000fa
:04027400240400005e
:020000040000fa
:04027800240400005a
:020000040000fa
:04027c002404000056
:020000040000fa
:040280002404000052
:020000040000fa
:04028400240400004e
:020000040000fa
:04028800240400004a
:020000040000fa
:04028c002404000046
:020000040000fa
:040290002404000042
:020000040000fa
:04029400240400003e
:020000040000fa
:04029800240400003a
:020000040000fa
:04029c002404000036
:020000040000fa
:0402a0002404000032
:020000040000fa
:0402a400240400002e
:020000040000fa
:0402a800240400002a
:020000040000fa
:0402ac002404000026
:020000040000fa
:0402b0002404000022
:020000040000fa
:0402b400240400001e
:020000040000fa
:0402b800240400001a
:020000040000fa
:0402bc002404000016
:020000040000fa
:0402c0002404000012
:020000040000fa
:0402c400240400000e
:020000040000fa
:0402c800240400000a
:020000040000fa
:0402cc002404000006
:020000040000fa
:0402d0002404000002
:020000040000fa
:0402d40024040000fe
:020000040000fa
:0402d80024040000fa
:020000040000fa
:0402dc0024040000f6
:020000040000fa
:0402e00024040000f2
:020000040000fa
:0402e40024040000ee
:020000040000fa
:0402e80024040000ea
:020000040000fa
:0402ec0024040000e6
:020000040000fa
:0402f00024040000e2
:020000040000fa
:0402f40024040000de
:020000040000fa
:0402f80024040000da
:020000040000fa
:0402fc0024040000d6
:020000040000fa
:0403000024040000d1
:020000040000fa
:0403040024040000cd
:020000040000fa
:0403080024040000c9
:020000040000fa
:04030c0024040000c5
:020000040000fa
:0403100024040000c1
:020000040000fa
:0403140024040000bd
:020000040000fa
:0403180024040000b9
:020000040000fa
:04031c0024040000b5
:020000040000fa
:0403200024040000b1
:020000040000fa
:0403240024040000ad
:020000040000fa
:0403280024040000a9
:020000040000fa
:04032c0024040000a5
:020000040000fa
:0403300024040000a1
:020000040000fa
:04033400240400009d
:020000040000fa
:040338002404000099
:020000040000fa
:04033c002404000095
:020000040000fa
:040340002404000091
:020000040000fa
:04034400240400008d
:020000040000fa
:040348002404000089
:020000040000fa
:04034c002404000085
:020000040000fa
:040350002404000081
:020000040000fa
:04035400240400007d
:020000040000fa
:040358002404000079
:020000040000fa
:04035c002404000075
:020000040000fa
:040360002404000071
:020000040000fa
:04036400240400006d
:020000040000fa
:040368002404000069
:020000040000fa
:04036c002404000065
:020000040000fa
:040370002404000061
:020000040000fa
:04037400240400005d
:020000040000fa
:040378002404000059
:020000040000fa
:04037c002404000055
:020000040000fa
:040380002404000051
:020000040000fa
:100400008f9320000e7f22000e0188000000000064
:10041000000020000000e000020032000001200087
:1004200020028800140007007e0107000000e000a1
:1004300003003a00400322000100200002003700c0
:100440000000200001002000810f70000100320038
:1004500014000700000020000000e000020032004d
:100460000000020000000000261f02000000000043
:100470000040da000000fe004440a9008002200095
:100480000000e0000300320000002000a00188000e
:100490004440a800000006008a1f78008b1f7800e7
:1004a0000000060091018800800478000000eb0045
:1004b0001a003700e284440032a0b4009905ba0063
:1004c000e284440032a0b4009906ba00e2844400f9
:1004d00032a0b4000006eb00476fde00fd07b2005b
:1004e000636ce10003003a00ebff07000000eb0043
:1004f0000a003700606ce10004003a00005deb0088
:100500008b05e900fdff3e00040037006168e10053
:10051000010032000086eb000b00070019c7ba008b
:100520001905ba000e04e00003003a000a00e000da
:10053000e0ff3a0000000600fe07b2009e018800be
:100540008a047800f5ff3700395dba008b05e900b1
:100550000c003200295dba008b05e900080032006a
:100560000c00e00003003a00e284440032a0b40032
:10057000f5ff370019ddba008b05e900faff3a00f4
:100580008904e800e184440032a0b40000000600c1
:10059000000000000000000000000000000000005b
:1005a000000000000000000000000000000000004b
:1005b000000000000000000000000000000000003b
:1005c000000000000000000000000000000000002b
:1005d000000000000000000000000000000000001b
:1005e000000000000000000000000000000000000b
:1005f00000000000000000000000000000000000fb
:100600003600f800809fbe00829fbe00849fbe001f
:10061000869fbe000000fa008020a9000000eb00c9
:10062000f61007000080fa004f03be004f02be0024
:100630004f01be004f00be003600f900004006002a
:100640003600f800809fbe00829fbe00849fbe00df
:10065000869fbe000000fa00ed1007008040a90050
:1006600010002000e51007000080fa004f03be00d4
:100670004f02be004f01be004f00be003600f90021
:10068000004006003600f800809fbe00829fbe003a
:10069000849fbe00869fbe000000fa008060a90013
:1006a00020002000d51007000080fa004f03be0094
:1006b0004f02be004f01be004f00be003600f900e1
:1006c000004006003600f800809fbe00829fbe00fa
:1006d000849fbe00869fbe000000fa008080a900b3
:1006e00030002000c51007000080fa004f03be0054
:1006f0004f02be004f01be004f00be003600f900a1
:10070000004006003600f800809fbe00829fbe00b9
:10071000849fbe00869fbe000000fa00404180001a
:100720000000e000020032004041800000000100b3
:10073000b0922000104078008040e800b092200085
:1007400001487800a092200011c0b3000148780051
:1007500084e0a9000080fa004f03be004f02be00f3
:100760004f01be004f00be003600f90000400600f9
:100770003600f800809fbe00829fbe00849fbe00ae
:10078000869fbe000000fa00504180000000e0009b
:10079000020032005041800000000100d092200091
:1007a000104078008040e800d09220000148780096
:1007b000c092200011c0b300014878008460a900f5
:1007c0000080fa004f03be004f02be004f01be0082
:1007d0004f00be003600f900004006003600f80069
:1007e000809fbe00829fbe00849fbe00869fbe0089
:1007f0000000fa00604180000000e00002003200ca
:100800006041800000000100f0922000104078005c
:100810008040e800f092200001487800e09220003b
:1008200011c0b300014878008500a9000080fa00db
:100830004f03be004f02be004f01be004f00be007e
:100840003600f900004006000040da000000fe001b
:100850000a00fa0011002000b1bf9f00c0bf9f0036
:100860006a805700300907004fb897000080fa00ef
:10087000000006000a00fa00e20f500034003e00bb
:10088000a0498000e10f500003003200e20f500049
:1008900011003a000c003700032220000300e000a2
:1008a00001003a000040da002002e20002003500b8
:1008b0002822ef0021e2a8002342ab000d003a00fd
:1008c0002342a8000b003700032320000300e000b0
:1008d00001003a000040da003002e2000200350078
:1008e0003822ef0031e2a8003342ab0001003a00a9
:1008f0003342a800820178000b0037003102fb0070
:10090000e10f500004003a002322ab00feff3a0042
:1009100024118800030037003322ab00feff3a00a9
:10092000a41188008301e9000300e000f3ff3a000e
:10093000e10f500003003a002302ab00feff32003b
:100940000b0037003302ab00feff32000800370017
:1009500033002000b3bf9f00c0bf9f00d1bf9f00e6
:10096000e2bf9f006a805700f10807006fb9970047
:10097000020078000080fa00000006000a00fa0079
:1009800051002000b1bf9f00c0bf9f006a80570088
:10099000e90807005fb897000080fa000000060031
:1009a000889fbe0080047800b04980000000e0000d
:1009b00004003a000e0007000084eb000000e00095
:1009c00008003500b84980000900e0000500320049
:1009d00009004400060007000000e00001003d009f
:1009e0000084eb00080078004f04be000000060001
:1009f000800078000100e00003003a0000002000c1
:100a0000b0498800000005000080eb0002002000d3
:100a1000828f500002003e00b14988000000eb00c8
:100a2000000006000000050003f0a200889fbe0041
:100a30008a9fbe008c1f7800fe000700050133006e
:100a40006450e1004f0032006420e10052003200a7
:100a500003826c0007003b000905d0000306d000ac
:100a6000820f54000c065d000200390002003200c3
:100a700089017800030678008582550004003d0056
:100a80000003fd008103fd008502ea008b85420022
:100a9000840f720002003b0060001000e08018002c
:100aa0006011b8000005eb007a28e1000a00390067
:100ab00006007800c75ddd00f707b200878075008b
:100ac0002d003700828171000a0178006105600005
:100ad0008180d1000080d3008502e900f9ff3b004e
:100ae000060440008784480002003b0060041400b4
:100af000e0841c000988a300070032008a8171008d
:100b000082817100610164008904d1000884d300ee
:100b10008b05e800170037000978a30013003a009e
:100b20000b00e000130034008b05e90008044400ca
:100b300089844c000a4474000978a3000d003a002f
:100b40000b00e000070034008b05e90008044400b6
:100b500089844c0001003a000b0020000978a300b2
:100b6000f7ff32000001eb000200370082817100c4
:100b70000a017800740007000cf0a70001f0a00043
:100b8000bd0037006420e10002003a00838f6c0052
:100b9000bd0033000801be000200be00b6003700f1
:100ba000889fbe008a9fbe008c1f7800a1000700ae
:100bb000a800330003866c006450e1002e00320070
:100bc0006420e100330032006150e1002f00320068
:100bd0006120e1003100320085855500eb07b0004f
:100be0000900200008042000050037000804440024
:100bf00089844c000a0031000603430087834b00c0
:100c00000001530081815b00f8ff33000203be0046
:100c10000800a0000804440089844c00f6ff390055
:100c2000c639dd008301730001003200130020008b
:100c30008904d1000884d3000998a300050032007c
:100c40000800a7000300a0008904d1000884d30095
:100c50008b05e8008904d1000884d3000001eb0073
:100c60000281d2003800070001f0a1000cf0a700bb
:100c700001f0a000800037006420e1008200320013
:100c80000801be000200be00f7ff37006120e1004e
:100c90007d0032006000b800f3ff37000000200044
:100ca00001f82700f0ff37000001be004c000700ec
:100cb0000470a70003f0a1006509b100160032001e
:100cc0000d0035006828e10006003500f0ff2f0018
:100cd000f1ff27000300e00013003b0001002800a3
:100ce0000000050000004000818048008502e90006
:100cf000fcff3a0008003700f88f420002003c0079
:100d00008000eb00000005008100d1000080d300ce
:100d10008502e800fcff3a000300e00002003b000f
:100d200060001000e0801800000006004f89de001f
:100d300082017800a60037006011b800b4003700c7
:100d400004002000870037008100200061805500ea
:100d50000b003d000b00200061fe2f000100e100b0
:100d60001d00340082817100610164008904d1009a
:100d70000884d3000000e800faff3a007100200068
:100d8000610064000300700002006000090032008e
:100d900061044400e0844c000988a500050032008d
:100da0008b05e8006808e10002003a008904d100e0
:100db0000884d300f20f20000258e10005003d0036
:100dc000c75ddd00f907b200898075000800780072
:100dd000000006000bf827008b00780000000500db
:100de000c70ade00f107b200f50fb20008003200ba
:100df000e1cf4200020032000170a0002400050093
:100e0000810f700001003200040805004400050055
:100e1000810f700002003a00140005008502e9000d
:100e20000000400081c04800fcff3b000170a000b2
:100e3000240005000004be00e9ff07000003be0017
:100e40000405be000200be00e5ff0700844f7500e8
:100e5000000006000200be006450e10005003600fc
:100e60006420e100020036000968a30001003a0096
:100e70000800be000160a0004f0678004f05be00cc
:100e80004f04be0000000600f0ff2f00f1ff270016
:100e9000f9ff3700889fbe008a9fbe008c1f780034
:100ea000e4ff0700ebff330003866c006450e100b1
:100eb000240032006420e100270032006150e1008c
:100ec000220032006120e100210032008b854200c7
:100ed000eb07b1000134b800003ab8000804420042
:100ee00089844a00013ab8000030b8008880400088
:100ef00009014a00040033000000400081804800de
:100f0000020149008b05e900c909dd008301700079
:100f10000100320013002000c814de004814dd0078
:100f20004709de001200b200c808de000884700025
:100f300085ff070001f0a1000cf0a70001f0a00060
:100f4000cdff37006120e100cfff32000801be0075
:100f50000200be00f7ff37006150e100fcff3a00dd
:100f6000c9ff3700889fbe008a9fbe00841f78009b
:100f7000b0ff07004f00780011003300f0ff2f0092
:100f8000838f6c0006003b00040565000a00a70083
:100f90000800370009f0a600100020000800370004
:100fa000820f5400838f5c00030039001000200082
:100fb00001003e000000200009f0a7000000ea0048
:100fc0004f05be004f04be000000e0000000060018
:100fd000881f7800030478000300e00007003d004c
:100fe00060001000e080180060011900e081190025
:100ff00002003b0001f02d00030037000400070051
:1010000008f0a70001f0a0004f04780000000600df
:10101000889fbe008a9fbe0000827000040271009b
:1010200004827100260032000004be000200be00ef
:101030006011b8006b092000950220000182cf00ea
:101040000a0039000541b1000082cf0007003900d5
:101050000541b1000982cf00040039000541b1000b
:101060000882cf00010039000541b100054252005d
:10107000120032000a003b008281710061016400ad
:101080008100d1000080d3008984d3000884d3007c
:101090008b05e8000442e800f7ff3a00070037003c
:1010a0000804440089844c00000048008180480006
:1010b0008b05e9000442e900f9ff3a0022ff07002e
:1010c0004f05be004f04be000000060061852000f1
:1010d0008c020700800078000080eb000100e00037
:1010e0000400350061852000a000200008000700f2
:1010f0004f80de00000006008000780001017800cb
:101100003104e000fdff3a0000005100000006003d
:10111000889fbe008a1f78000004be00c9009000ae
:1011200069009000808f50000600390009007800a7
:1011300037030700800078000080eb000100e0002a
:1011400017003500084578004900900008587800dd
:10115000c00498001900780000b8a30004003a0009
:1011600000a8a30008003200ea4f540006003a002d
:101170000900780028020700800078000080eb005a
:101180000100e00006003a0000c0200019006000e5
:101190000200320049009000e00498000a80fb0041
:1011a0004f0578004f04be0000000600889fbe0077
:1011b000000478000100780082047800880178003b
:1011c000090178001100200096020700890f5000e5
:1011d000010032000004eb00080078004f04be005c
:1011e000000006000000fa00e88157004fb99700a0
:1011f00061852000608d2000f00007000080fa006b
:1012000000000600889fbe00800478000203be0034
:10121000010478006149b800898fd2008381d2002f
:10122000080278000600be00c506070008804400da
:101230004f04be0000000600881f780002047800fa
:1012400008017800d5020700080040004f0478002c
:10125000000006000000fa00881f780000047800f3
:101260006a825700bfb997000801780021902000da
:10127000c0912000160007000000e00002003500c9
:101280008040eb00017478004f0478000080fa0081
:1012900000000600889fbe00000478000203be0024
:1012a000810478000802780089017800120020008b
:1012b0000600be0028050700890f5000010032001b
:1012c0000004eb00080078004f04be000000060098
:1012d0006800fa00889fbe008a9fbe0080047800e4
:1012e0000104780082057800030578008400780006
:1012f00000f92f000f00400015050700d98f9f004f
:10130000fb8f9f000000eb00a09f9f00e88f9f00d5
:101310009a84fb000904fb008904ea00cf4cde003c
:1013200050022000800f54000d003200e18f540065
:101330000b003a00090178008a0078007f88970046
:10134000df89970003000100f08f9f000000e0009c
:10135000950032002f9897000000e800a09f9f00a2
:101360000905450050022000800f5400040032009f
:101370000800e000e6ff3a002f9897008b00370046
:101380000000eb00809f9f00f0979f00e0979f0078
:10139000d0979f00c0979f00b0979f00070037002d
:1013a000c19020000100500000004000019020008a
:1013b00061007800cf98970001007000c09f9f00e7
:1013c0000a04780008057800ba4478008900fb0018
:1013d000c0902000780207000000e000f0ff3a0013
:1013e000a1c2b30081cf54000e003a008f8897004d
:1013f0000180e900808f9f0010007800b09f9f005f
:101400000000e00005003d000000ea00b09f9f00e2
:101410004f9897000020a000c09f9f000804e8009c
:1014200010003700b09f9f00880078000000eb009c
:1014300005003700f3ff2700830f50000200320041
:101440006a02b900040041000104780088007800b5
:101450003101fb000203b100e90f5100f5ff360036
:10146000b09f9f00e0c2b300984f1000020032000e
:101470000080eb0019003700a0c2b300d84f100065
:1014800007003a008f8897000180e900808f9f0055
:1014900010007800909f9f000804e80010003700bb
:1014a0000000eb00909f9f00880078000500370047
:1014b000f3ff2700830f5000020032006a02b900d8
:1014c0000400410001047800880078003101fb002d
:1014d0000203b100e90f5100f5ff3600909f9f0015
:1014e000984478008900fb00808f200032020700ba
:1014f0000000e000020032000804e80001003700ac
:101500008044eb00a97f9f0080c6b30080cf5400c9
:1015100006003a0098cf140010003a0066405000d0
:10152000a07f9f000804e8000c003700c0c6b3008d
:1015300080cf540009003a0098cf140007003a0009
:1015400067404000d84f100002003a006e40500043
:101550000100370010c7b300a07f9f001801fb00f7
:10156000c3fb2f008f81410001f92f008f804000c5
:1015700020f92f000f004000150007000000e000d8
:1015800009003a00c1fb2f008f80400020f92f0096
:101590000f004000940307000000e0000200350047
:1015a0000805e8005aff37000080eb004f05be0039
:1015b0004f04be000080fa0000000600030278001d
:1015c0008201780001017800a194200040ff3700db
:1015d000889fbe008a9fbe00e4c6b300844f5100be
:1015e000be00320010003c006b425200844f51009c
:1015f0001800320005003c0054c2b300844f510073
:10160000f600320084c5b3000f00370044c6b300b3
:10161000844f51001400320065424200844f510053
:10162000f1003a001000370004c7b300844f5100a6
:10163000dd0032005600350065424200844f510003
:101640005300320063424200844f5100e6003a00ea
:101650004f0037001181e90082087800a00890004f
:1016600012417800de003700006a9000c5c6b30062
:10167000854f520007003a009102780064825200c0
:10168000840878001402be004fabde0086037800a9
:101690001400370015c7b300854f520003003a000d
:1016a000110478006802540005003700a5c6b30095
:1016b000854f520006003a00910478006882540079
:1016c000840878005403be004402be0005003700c1
:1016d0001182e9008408780014027800cfa2de00ad
:1016e000612bb9000498be000690be00806890008f
:1016f00088c6b30088cf50000d00320028c6b30062
:1017000088cf500004003a000402fb00cfa2de00a4
:10171000612bb9000800370048c7b30088cf5000dc
:10172000030032006644440088cf500004003a00b1
:10173000cfa2de00612bb9000498be000690be0067
:101740003002be002003be00a0089000e00f52004f
:10175000e08f5a00e00f5b00e08f5b0002003d006d
:10176000d4c2b30008003700301290000418a30060
:1017700002003200b4c2b300030037000408a30023
:101780005100320004c2b30084f178004c003700ed
:10179000006a9000c5c6b300854f520008003a00a9
:1017a0001105780064025500840878001404be0016
:1017b0006055b8000802be000a03be0014003700de
:1017c00015c7b300854f520003003a00910478001a
:1017d0006882540005003700a5c6b300854f52004b
:1017e00006003a0011057800680255008408780068
:1017f0005403be004402be00050037001182e90018
:1018000084087800140278008002eb006033b8008e
:101810000498be000690be008068900088c6b300a1
:1018200088cf50000d00320028c6b30088cf50008a
:1018300004003a000482fb008002eb006033b80031
:101840000800370048c7b30088cf500003003200bb
:101850006644440088cf500004003a008002eb0048
:101860006033b8000498be000690be00b01090002f
:101870000138a300140032003002be002003be0075
:10188000e00f5200e08f5a00e00f5b00e08f5b003a
:101890000d00320081c7b300814f510003003200b8
:1018a00081c5b300814f510007003a00a0089000a5
:1018b00004c3b30084f178008100e80082f178006d
:1018c0008100e80021089800a00890008181410073
:1018d00073009800824078003e00370080699000d5
:1018e000c4c6b3001181e90084cf51002200320048
:1018f0000a003c006442520084cf510025003200af
:1019000004c2e80084cf5100130032006842520044
:1019100084cf51001e003a000a00370044c7b300cc
:1019200084cf51001b0032006642420084cf510038
:10193000180032006942520084cf510014003a006e
:10194000050037008208780092007800206090003f
:10195000804878002c0037008208780092007800d8
:1019600010129000cfa2de00612bb9008498be0057
:101970008690be002400370082087800920078002c
:1019800010119000cf91de008288be001e0037004b
:101990001181e90082087800920078001010900010
:1019a00080087800180037001181e900820878006b
:1019b00012027800cfa2de00612bb9000498be00ad
:1019c0000690be00a008900081814100730098003d
:1019d00081c7b300550107000b003700a008900035
:1019e00082f1780006003700a00890008181410054
:1019f0000204e00001003a0052c2b30082497800bc
:101a00008100e800210898000000eb004f05be00af
:101a10004f04be0000000600889fbe008a1f7800a9
:101a2000000478000800e0000d003a00488a200019
:101a3000700544008004eb00580078000000e000ce
:101a400004003200f4ff07000000e00001003d0048
:101a50008084eb008a0f5400f7ff3a00250037001e
:101a600000002200180060008004eb00210032001a
:101a7000a80490000f003700090151003840900081
:101a80000000fb00890078007afb07000000e000fe
:101a900007003c0028009000400498006004980073
:101aa000500c98001890a0008084eb0011003700c3
:101ab0008084440048019000828f5400eeff39007a
:101ac00028009000400498009800780002c0200090
:101ad0000281600001003a003800900001e8a30094
:101ae000020032006004980001003700500c98009a
:101af0008004eb00090078004f0578004f04be0019
:101b000000000600889fbe008a9fbe008004780007
:101b1000010478002c003700c80090006800900095
:101b2000808f50000400390008007800b8000700da
:101b30000000e00037003500004020001800600081
:101b400009003200a100200009007800a60007006b
:101b5000800578000b00e00003003200618514006e
:101b60000a854500040037000900780062fd07007f
:101b7000000578008005eb0048009000e800900028
:101b8000808050008a8f50000200310001057800eb
:101b90008005eb000a017800890078007f000700cb
:101ba000480090000a004000400498000b00e0004c
:101bb000040032000800780097ff07000000e000f2
:101bc00014003a008a8444001904e000d2ff3a006d
:101bd0000080200018006000060032000800780035
:101be0008dff0700800078000080eb000100e0001e
:101bf00009003a0001c02000988060000000eb005e
:101c00000500320048009000600498000000eb00de
:101c1000010037000080eb004f05be004f04be00fe
:101c200000000600889fbe008a9fbe008c9fbe00f9
:101c30008e1f78000006780001047800020078000a
:101c4000830478000881b900020778000200e000f0
:101c5000420032000800e0004100320082057800b6
:101c6000c900900069009000808f50000400390086
:101c700009007800660007000000e0002900350038
:101c800000402000190060000a0032000b017800bb
:101c9000a10020000c0078003600070080067800c4
:101ca0000d00e00006003200610516000a854600be
:101cb000040037000b0578008006eb0001003700b8
:101cc0000b05780049009000e900900080805000ea
:101cd0008a8f500002003100010578008006eb0079
:101ce0000a0178008c0078002c0007008a855500d6
:101cf000490090000a004000c00498000d00e00078
:101d0000040032000900780043ff07000000e000f3
:101d100004003a000b00e000020032000a06460010
:101d2000cfff370000802000190060000200320061
:101d30000900780038ff070000c02000190060008b
:101d40000200320049009000e00498008b05570023
:101d5000110009008885d800010037000000eb0061
:101d60004f0778004f06be004f05be004f04be006f
:101d70000000060003003700b0cf1000050032005d
:101d80000201e900800178000200e000faff3a0059
:101d900000000500030078000000060080017800c4
:101da00002003700b15978000201e9000200e000aa
:101db000fcff3a0000000600020037000304e000c8
:101dc000060032000001780002007800b04178007f
:101dd00081cf5100f9ff3a00010037000001eb000c
:101de00002007800000006000001eb00000278000d
:101df000b041780081cf510001003a000401780021
:101e00000304e000f9ff3a00020078000000060039
:101e1000889fbe008a1f780000047800c8009000e8
:101e2000680190000000eb00828f50003c003900f8
:101e3000180078002200290002016000e20f510022
:101e400007003200012020000000e0000100350002
:101e500001202400008c70000080eb00300037006f
:101e60000200260002006000820f500009003a00c4
:101e700038009000808f500006003900080078007c
:101e8000e5fe0700800078000080eb000100e00024
:101e900023003a001805780000c02000000065000b
:101ea00018003a00a80490006002200008004000da
:101eb000808f540013003a000020200066030700c2
:101ec000200498000000e00005003a002904980072
:101ed000490498008904e800390498000800370094
:101ee0000a60a0000a0c780040049800012020003d
:101ef0008080400031049800400c9800500c9800fd
:101f000083020700280090005004980038009000d9
:101f10006004980000002600180c70000000eb0020
:101f20004f0578004f04be0000000600fc87470004
:101f3000889fbe008a9fbe008c9fbe008e1f7800c7
:101f40000006780080c5b30080cf50000a00320040
:101f50007740400080cf50000a00320069404000c6
:101f600080cf50000b003200708c200080bf9f009b
:101f7000ae0020000a003700628b200082bf9f0065
:101f800006003700738c200083bf9f008e00200066
:101f900003003700748c200084bf9f000e012000d6
:101fa0003c02be002c03be000605be000404be00b9
:101fb00040c6b30080cf50000300320065404000af
:101fc00080cf50000b003a00e00f5200e08f5a0023
:101fd000e00f5b00e08f5b0006003d006000b80092
:101fe0006011b800040450008584580006055900ab
:101ff00087855900e80f5700040032004000200098
:10200000f00f570038003a00010037003000200080
:10201000e00f5400e08f5c00e00f5d00e08f5d009a
:1020200004003a008c1090008d0120000100e000b7
:10203000060032008e00e900888060008fba9700a9
:10204000e5c07800f1ef9f007d012000800078005e
:102050008100e900050033008b05d1000a85d3001b
:102060008984d3000884d300f9ff3700089ebe009e
:102070000a96be00120037008d06e9008e00e900c6
:10208000848060000fb99700e2c1780082fd2f00c4
:102090000f01410003f17e00800078008100e9001b
:1020a000050033008783d1000683d3008582d300e7
:1020b0000482d300f9ff3700049ebe000696be00de
:1020c0003c02be002c03be00e00f5200e08f5a001d
:1020d000e00f5b00e08f5b008b0034000d00e00040
:1020e000e5ff3c00880037000c68900081c6b30013
:1020f000814f50000b00320006003c000004e0005d
:1021000008003200e6c05000814f50004e003a00f7
:1021100004003700c1c6b300814f50004a003a00a6
:10212000210037000800e00004003a000c10900085
:102130008d0120000000e0000600320011000900bf
:102140000e84d8000fb99700e2c07800f1ef9f002d
:102150007d012000110009000e84d8000a0037001c
:10216000110009000e04d8008d06e9000e81b900a7
:10217000020454008fb8970061417c0081fd2f005c
:102180008f80400082f07e00000478000800e000ac
:10219000020032000d00e000f1ff3c00cfc4de0081
:1021a000614db90025003700e00f5400e08f5c005e
:1021b00004003a000c1090008d0120000000e000a7
:1021c000070032006171b9000800be003303070048
:1021d0008fb99700e3417800f3ef9f007d01200065
:1021e0006171b9000800be001c0307000b00370036
:1021f0006171b9000800be00090307008d06e900ff
:1022000000f1b900020454000fba9700e4427c00c8
:1022100084fd2f000f02420005f27e000004be0084
:10222000e00f5000e08f5800020032000d00e00087
:10223000efff3c004fcdde008a057800089ebe000f
:102240000a96be0030003700e00f5400e08f5c00bb
:10225000e00f5d00e08f5d0004003a000c1090007c
:102260008d0120000000e000090032006172b90019
:10227000612bb9000800be000a01be00b0030700d0
:102280000fba970064427800f4ef9f007d012000b0
:102290006172b900612bb9000800be000a01be00de
:1022a000a00307000d0037006172b900612bb9006f
:1022b0000800be000a01be00a50307008d06e90064
:1022c00000f2b900040454008fba970065427c0004
:1022d00085fd2f008f82420084f27e00009ebe00aa
:1022e0000296be003c04be002c05be00e00f540068
:1022f000e08f5c00e00f5d00e08f5d0002003400c5
:102300000d00e000e8ff3c00e80f570010003a0025
:102310003c1090000038a3000d003200f78f5600eb
:1023200006003e0085fd2f008f824200e5c07e0042
:1023300000c3b30080cf5000050032008d06e900d5
:1023400002c3b30081fd2f008f80400082f07e0029
:1023500078811600420e98007c00900083fd2f00cb
:102360008f8141008d8041008cfe07004c08900059
:102370008c109000810f500006003d00008050003e
:10238000300e98003c1090000040a10030169800dc
:102390000f0037000100e0000d003d00bc10900070
:1023a000f4806000f08f500009003a002c1190007a
:1023b000ac089000810051003c09900082805000e0
:1023c000008050004240a90001003400300e980007
:1023d0004f0778004f06be004f05be004f04be00f9
:1023e000cf01b100000006000400fa00889fbe0083
:1023f0008a9fbe008c1f78000004780001067800d8
:10240000a814900028089000808454003808900098
:10241000808454004808900080845400580890003c
:1024200080845400680890008084540078089000ec
:10243000808454000002220090bf9f00000323000c
:10244000a0bf9f00381090000028a30015003a009c
:102450000900e00013003400090578008a057800bf
:10246000e20f5500010036002b002000c80190004b
:102470000b017800ee805700680090000300010017
:10248000600498000000e000aa00320018109000dc
:102490000b004000101498000b0555004240a900a5
:1024a000eeff3c00280990000200e0000c00340020
:1024b000c80190008c0078006800900003000100c3
:1024c000600498008080eb000000e0009a00320079
:1024d0009810900028089000008040001014980088
:1024e000380d90000a00e000110034008a057800e1
:1024f000e20f5500010036002b002000c8019000bb
:102500000b017800ec805700680090000300010088
:10251000600498000000e00086003200181090006f
:102520000b004000101498000b055500edff37001c
:1025300008699000c808900050c6b300804f510051
:1025400008003a000100e000150034005802900035
:1025500008099000980990006800900004000100ac
:10256000070037000100e0000d003400c8019000b2
:1025700001017800f800900068009000030001005d
:10258000600498008080eb000000e0006a003200e8
:1025900098109000480890000080400010149800a7
:1025a000580d90000a00e000110034008a05780000
:1025b000e20f5500010036002b002000c8019000fa
:1025c0000b017800ec8057006800900003000100c8
:1025d000600498000000e0005600320018109000df
:1025e0000b004000101498000b055500edff37005c
:1025f000086990006808900051c6b300814f5100ef
:102600000d003a000000e0001c003400780190004a
:10261000c8089000010141006111b800828fd2000a
:102620008381d200580290008000780068009000fa
:1026300004000100090037000000e0000f00340032
:1026400078019000c808900081004100c801900006
:102650000001780068009000030001006004980009
:102660008080eb000000e000330032009810900002
:10267000680890000080400010149800780d9000c9
:102680000a00e000110034008a057800e20f5500ce
:10269000010036002b002000c80190000b017800db
:1026a000ec8057006800900003000100600498006f
:1026b0000000e0001f003200181090000b004000e6
:1026c000101498000b055500edff370038109000ee
:1026d0008000eb000028a300170032000900e00092
:1026e0001500340009057800e28f5400010036001f
:1026f0002a002000c80190000a017800ee805700ef
:102700006800900003000100600498000000e000f1
:1027100008003200181090000a00400010149800c1
:102720008a8454004240a900eeff3c008000eb0088
:10273000010037008080eb00010078004f06780030
:102740004f05be004f04be000080fa0000000600e6
:102750000108780000000600e6874700889fbe0059
:102760008a9fbe008c9fbe008e1f780082bf9f0094
:1027700004047800029ab900f4b79f000400e00056
:10278000590032000fb997000200e00057003200f4
:102790000006be0004077800c800900068009000a2
:1027a000808f5000040039000800780098fd070071
:1027b0000000e0003b0035000040200018006000f1
:1027c0000a0032008e017800a20020000c00be003a
:1027d000780107000005be00008075000700320088
:1027e0008c0455008904e800050037008e04780049
:1027f0000a0020000b002000010037008e04780042
:10280000480190006800900002005000890f5000bd
:1028100003003100800478000a0020000b00200033
:102820006111b800828fd2008381d2000902780042
:102830000c00be0042010700090757004800900045
:1028400009004000400498000a8575000400320029
:102850000800780070fc07000000e00011003a005a
:102860000e00e0000f0032006148b800808fd200f7
:102870008180d2000000780000f0a1008c01d0001f
:102880000001d000028641004220a80081864e004f
:102890004200a9004220ae004200a8000c86d300ee
:1028a000bdff3700008020001800600002003200e9
:1028b0000800780058fc070000c0200018006000e5
:1028c00002003200c8019000630498007fb09700b6
:1028d0000e0750000fb99700110009000287d800b9
:1028e00080017800010037008001eb0003007800d0
:1028f0004f0778004f06be004f05be004f04be00d4
:102900006f00b10000000600a052210061003700f6
:10291000881f7800089320001804e00003003a00a4
:10292000f9ff070020c0b300004c78004f04780086
:1029300000000600889fbe000004780008007800b0
:1029400035fc0700800478000004200018006000b7
:1029500002003200280090005a0007000000eb003f
:1029600020049800384090000004e0000500350085
:102970000000fb00b6f707000000e0000100320095
:102980008084eb00181090000000e0000800320086
:10299000faf707000000e000010032008084eb003d
:1029a00018109000470007000000eb00101498007a
:1029b0000008200018006000150032000001eb0044
:1029c0006000b800638a20000202d00063027a002f
:1029d000880f520005003a00000040008180480046
:1029e000008041000008eb00060037006100400055
:1029f000e08048000201e800e80f5000e08f580036
:102a0000f0ff3a00080078002e0007000e003700a3
:102a1000000c780000c0eb003044980060022000f9
:102a200008004000200498004004980050049800da
:102a3000400c980060049800500c980070049800b6
:102a400076004400000c9800090078004f04be0096
:102a500000000600881f78000004eb006140b80009
:102a6000e2ff2f00f3ff2f000f010700428b200031
:102a7000620078000000e00001003200adff0700b6
:102a80000804e800e80f5400f4ff3a004f0478000f
:102a900000000600010020000100e00008003200f4
:102aa000010080000100e000050032008100e90023
:102ab000010088008100d0000200800000b1780091
:102ac000000006000000e0002f003200c001780086
:102ad000e38f51002c0036000308a3002a003a00bf
:102ae000414980000100e00002003200810f5000e7
:102af000040031001100980040498800160037009a
:102b000082007800110190000200e0000200320013
:102b1000800f5100faff39001102780084824000d2
:102b2000850f500018003900808f520003003a00d2
:102b30008308420001007800070037000200e0002f
:102b40000300320083014000830f51000e00390062
:102b50001200980090009800900090000100e000a2
:102b60000900320010014000828f500006003a0038
:102b7000629220000009eb0010017800110841006a
:102b8000910090001100980000000600889fbe0090
:102b900000047800314980000100e00002003200aa
:102ba000010078000d00370041498000809220002c
:102bb00004003700910f5400250036000180e80022
:102bc000910090000100e000faff3a001000370089
:102bd000920f54001e0036000280e80010017800b9
:102be0000200e000faff3a0011017800414980003c
:102bf0008092200004003700910f5400140036002a
:102c00000180e80091009000828f5000faff3a00a6
:102c100099498000888f54000100310088047800b1
:102c200009007800360007000000e00004003a00c8
:102c3000888f5400050032008904d100f5ff370069
:102c4000091878009fff0700d2ff37000000eb0053
:102c50004f04be0000000600881f78006304400097
:102c60000800a1008000eb00800f54002100360016
:102c7000e30f540001003e004800200008007800e7
:102c8000c2ff07008000eb000000e00019003200e6
:102c9000900078009101780064815100880f510004
:102ca000030031001101900002087800070037008e
:102cb00008814000020878009101900013019800fb
:102cc00010017800110914008808780010017800bc
:102cd0000000eb000200e0000400320092019000ce
:102ce0000300e000010032000280e8003049880063
:102cf0008180e800010078004f04780000000600a1
:102d0000800078000000eb000100e00005003400c6
:102d10000100780022f70700e10f400001003a00af
:102d20000000eb000000060000c0da000000060012
:102d300000c0da000000060000c0da000000060053
:102d40003400f8000203be008202700085027200a7
:102d500002f0a60000f0a6008100e800a1018800b2
:102d60001500b20008003200105978000402e90092
:102d70000d00320061004000fbff39003420ec0000
:102d800000002800f8ff3700101978000482e900dd
:102d90000500320062004000fbff39003420ec00e7
:102da00000002800f8ff37003400f9000601be00db
:102db000000006000300e00007003200a5018000cb
:102dc000a101880010427800a50188000402fb00e0
:102dd000820f5200110032008301e900a50180003a
:102de000a101880010427800a50188000404e000d9
:102df00008003200000278001000b00000026a00f3
:102e00004260af0000f0a0000482d2000180b00058
:102e1000e8ff37000000200001002000000006004d
:102e2000839f68000100e00002003d006000100088
:102e3000e08018000300e00002003d006001110086
:102e4000e0811900050007004f00e00002003b0090
:102e500060001000e0801800000006006022b8004a
:102e6000060220000000d0008180d2000482d2003f
:102e70008582d2000000a0000202520083825a0024
:102e8000030031000202420083824a000000a100d8
:102e90000603e900f3ff3a0000000600efff070019
:102ea0000400be0000000600020ab900001bb900c1
:102eb0000200b800810042008100430000000600cb
:102ec000889fbe008a9fbe0030044200b0844a0042
:102ed00030054b0090854b006000b1000898be00a3
:102ee0000a90be000440e10005c8e10006d0e10000
:102ef00007d8e10002003100680040001008e80037
:102f00004f05be004f04be0000000600889fbe00b3
:102f10008a9fbe003004be002005be000418540085
:102f200005985c0006185d0007985d001100200000
:102f30000440e10005c8e10006d0e10007d8e10047
:102f4000010039008000eb00108810004f05be0022
:102f50004f04be00000006001200fa00889fbe0069
:102f60008a9fbe008c9fbe00e0b79f00f1b79f0014
:102f700082bf9f0093bf9f000605be000404be00f1
:102f80000000eb00d0b79f00c0b79f00b0b79f0014
:102f9000a0b79f0090b79f00000678005fb1970030
:102fa000cfb09700820141003fb097000200e000df
:102fb00004003d00370007007e805700c0ff070077
:102fc00003003700330007007e805700cfff070063
:102fd000dfb697000d00e0000c0035006fb29700df
:102fe000ffb297000fbb97009fbb97001000200017
:102ff000010020006011b80000027200818272009e
:1030000002037300838373001b0007000c06e800b3
:1030100001042000810f5600e0ff3a000d00e0009f
:1030200004003d000802be000a03be007e80570077
:10303000a3ff07005fa897000000e00005003a002a
:103040001fb29700afb297003fb39700cfb397007e
:10305000090007006fb09700ffb097000fb9970005
:103060009fb997004f06be004f05be004f04be003b
:103070000080fa00000006000100070000000600c2
:10308000a4b79f00b5b79f00c6b79f00d7b79f00f2
:10309000000006004f09de0082817100b3b79f0077
:1030a0004f01de008180400082807000a1b79f0048
:1030b0008fb097004f09de00000040000200700052
:1030c00090b79f007fa897004f01de0081804000ed
:1030d0008280700081b79f000d0007004f3ade002c
:1030e0000000400004007000f0af9f0008000700df
:1030f0000402420085824a0006034b0087834b008e
:10310000dfff07000802be000a03be000000060041
:103110002fb29700bfb297004fb39700dfb397006d
:1031200000000600881f780018002000881f780023
:1031300089ff07008f87e9004f0478000000060030
:10314000801feb0084ff07008f87e9000000060066
:10315000889fbe008a9fbe00e00f5000e08f58009d
:10316000e00f5900e08f59000c003d006044b800aa
:103170006055b8000000540081805c0002015d00d1
:1031800083815d00180020001500070008003d0045
:10319000180007000004eb00050037000004eb00f6
:1031a0000f00070002003d00120007001800200079
:1031b000dcff07000800e000060032006022b800d3
:1031c0006033b8000000520081805a0002015b00a9
:1031d00083815b004f05be004f04be000000060067
:1031e000e00f5200e08f5a00e00f5b00e08f5b00c1
:1031f000000006006044b8006055b80004025400a6
:1032000085825c0006035d0087835d000000060088
:10321000889fbe008a9fbe008c1f7800e00f500080
:10322000e08f5800e00f5900e08f59000d003d007d
:103230006044b8006055b8000000540081805c0014
:1032400002015d0083815d001c0020000820e10078
:1032500009a8e1000ab0e1000bb8e1000d003d0053
:10326000080037000006eb00e00f5200e08f5a0024
:10327000e00f5b00e08f5b0006003d006044b8009b
:103280006055b8000402540085825c0006035d00ae
:1032900087835d00aaff07000c00e00006003200f3
:1032a0006022b8006033b8000000520081805a00ec
:1032b00002015b0083815b004f0678004f05be0072
:0832c0004f04be0000000600ef
:020000040000fa
:1032c800506f000074200000566100006c7500000b
:1032d800650000002530000035640000202500004e
:1032e8003035000064200000253000003364000001
:1032f80000000000256c0000642000002d3e000046
:10330800200000004e5500004c4c0000000000005a
:020000040000fa
:103318000200fa00000f78006000b8000080fa0090
:10332800000006000000fa00b040800000f0a7008e
:103338000000ea000000e9004f00de0000407800cd
:103348000080fa00000006000000fa00c04080007b
:1033580000f0a7000000ea000000e9004f00de00ce
:10336800004078000080fa00000006000000fa0023
:103378009460a9001a28ef001c28ef001e28ef000f
:103388002028ef002268ef000080fa000000060005
:103398000400fa00008fbe00320407008000eb0032
:1033a8003e015000ae8158000200be00f040880087
:1033b800014188000000eb002e0407008460a9008a
:1033c800f0408000014180000000780029040700d7
:1033d8000080fa00000006000800fa0020079800a4
:1033e80031079800d0408000e14080002e01900015
:1033f800be0190000200400083804800200798002a
:103408003107980022c8bf000004e000170032000e
:10341800210407008000eb00008fbe00f040800010
:10342800014180001e01be00800f5100818f5900ac
:10343800030031000b0407008000eb00008fbe0082
:10344800f0408000014180003e011000ae8118006c
:103458000200be002e019000be0190000200400054
:103468008380480020079800310798002e009000bc
:10347800be0090000080fa00000006000200fa007a
:10348800889fbe00000f78001e007800300490006e
:10349800c00490006000b800cfff0700000054008f
:1034a80081805c004f04be000080fa000000060026
:1034b8000600fa00b1408000010f78006000b800f3
:1034c800c5ff070010079800210798000d00370076
:1034d8001e00780030019000c00190001e0090008e
:1034e800ae00900000005100818059001e01780054
:1034f80030019800410198001e007800a00090005b
:10350800010f78001e0078000000e000f0ff3a008c
:10351800d2408000e34080001e009000ae00900082
:103528000000510081805900d0408800e1408800a7
:103538001e009000ae0090000080fa000000060017
:103548000200fa00b1408000010f78000b0037003c
:103558001e007800c000900030009000809fbe00e0
:10356800e0972900801f78001cf70700e6875700be
:103578001e007800a0009000010f78001e0078005f
:103588000000e000f2ff3a0060982900cdf607003d
:103598000080fa00000006000c00fa00889fbe00b8
:1035a800500798005e00900030019000c001900024
:1035b800028fbe0010c0b30040479800b34080009f
:1035c800330798000000eb00400798005e00900069
:1035d8008000eb0021009800d0408000e14080008e
:1035e8001e01be00800f5100818f59001e0031005e
:1035f8009c0307006104b800adff070000005400f9
:1036080081805c003e014000ae8148000200be009f
:103618001200200003002000021f4000039748000a
:103628005e0090001e01be00320098004300980022
:103638000d0037003e009000c00090003000900060
:10364800be0f5000ae8f58000b003e00be01900028
:10365800430798003e009000a000900031079800b2
:103668000040eb00404798003e0090000000e0005a
:10367800f0ff3a0001003700000000004e409000c3
:10368800e14f500011003a00760307008000eb007c
:103698003fff07008460a900b1408000c09120006e
:1036a800808f500002003a00004980000100370076
:1036b800b0408000de009000a00098005e019000fd
:1036c800b240880010c0b300080037004e009000d8
:1036d800a00090005e009000210098004e0090002d
:1036e800de019000230098000040eb004f04be006c
:1036f8000080fa00000006000400fa009460a900a7
:10370800b04080000000e00002003a0017ff070008
:1037180020003700b040800030019000c0019000c8
:10372800d0408000e1408000001f510001975900ff
:103738004c0307008000eb00be0f5000ae8f58000e
:103748000f003100470307006101b800d040800036
:10375800e140800002004000838048001049880052
:1037680021498800b040800000498800c0912000ad
:10377800b04088003b0307008000eb00008fbe00cc
:103788001e00be0002ff07009460a80010c0b3002e
:1037980022e8b7000080fa00000006000000fa00e6
:1037a800f2fe070002003700b04080004200070028
:1037b800b04080000000e000fbff3a000200370044
:1037c800c04080003c000700c04080000000e000ce
:1037d800fbff3a000080fa00000006000a00fa0029
:1037e80030079800410798000040eb00004f780030
:1037f8003e009000100078000000e00002003a004f
:103808001e4078002a0037009460a9003e0090000e
:10381800900078004e009000808f500009003a0018
:103828003e00900010007800a00090003e0090003c
:103838000108780010c0b300004f7800aeff070001
:103848001a0037003e009000900078001107980099
:103858000000eb0020079800100037009e00900041
:103868004e009000808f500007003a001e00900024
:10387800a00090002e0090002100980010c0b30016
:10388800004f7800080037009e009000210798003c
:103898001e009000a0009000110798001e009000e4
:1038a8000000e000edff3a009460a8001e40780098
:1038b8000080fa00000006000200fa00000f7800fd
:1038c800608120009e007800c4ff07000004a20069
:1038d8000004e000030032009e0078008081200090
:1038e800beff07001e0078008000eb002100980052
:1038f8000080fa00000006000400fa001007980093
:103908009e009000c0912000808f500002003a0075
:1039180020912000100798001e0090008000eb0006
:1039280021009800c04080000000e00003003a0039
:103938009e009000c14088000d003700c140800003
:10394800010f7800030037001e007800a0009000e7
:10395800010f78001e007800200090000000e000b1
:10396800f9ff3a001e0078009e00900021009800a0
:103978000080fa00000006000800fa00c04080003d
:103988000000e00025003200a0048000680060000c
:1039980000f0a7000000ea000000ea004f00de0087
:1039a800004f78009460a900c1408000110798007a
:1039b800c040800020009000c04088001e00900099
:1039c8008000eb00210098001e4078000004e00011
:1039d800010032009460a8001e009000900078005a
:1039e8001e009000100090000100010020079800c0
:1039f800310798002e009000be009000e00f5000a4
:103a0800e08f5800060032002e019000be019000a1
:103a18001e009000090007000100370000000000a8
:103a28000080fa00000006000000fa0040d52100de
:103a3800a00207000080fa00000006000600fa0055
:103a4800000f780012079800230798001e007800de
:103a580099ff07009460a9001e009000ae00900036
:103a68005dfe07001e0178003001980041019800b2
:103a78001e007800c8fe07000004e00002003200c3
:103a88001dff07000400370022c8bf000004e00043
:103a9800010032009460a8000080fa0000000600cf
:103aa8000200fa00b0408000a0009000010f7800ea
:103ab800b0408000c000900030009000d0408800e6
:103ac800e14088001e28ef002028ef00b140800068
:103ad800c0912000808f500002003200b04080006a
:103ae80085ff07009e007800b140880002ff0700ac
:103af8000080fa00000006000600fa00200798007f
:103b08000080eb008080eb00008fbe001e00be002e
:103b18008100d1000080d3000001be002e0090007b
:103b2800c6ff07000080fa00000006000e00fa0039
:103b3800600798006000b80027fe0700008fbe00ed
:103b48000080eb008080eb00200798003107980088
:103b58002e009000be0090008100d1000080d300ac
:103b680020079800310798006e00900052ff070068
:103b78006e009000c0009000300090003e015000a0
:103b8800ae8158000200be00400798005107980017
:103b98002e019000be0190004e009000de009000c3
:103ba80000005100818059000080fa0000000600e2
:103bb8000200fa00000f78000028ef001000200033
:103bc800604088009e007800714088000000000076
:103bd800604080000000e000fdff3a000080fa002d
:103be800000006000000fa009e020700cd22a9008e
:103bf8000080fa00000006000000fa001040800073
:103c08000000e8001040880011408000800c20006f
:103c1800808f500003003c00104080000000e0004e
:103c280005003a000228ef0080408000904088009c
:103c3800cd22a800830207000080fa0000000600d9
:103c48000000fa00004080000000e8000040880002
:103c5800604080000000e000060032000140800063
:103c680070408000808f5000020034000028ef0070
:103c78000c28ef000080fa00000006000400fa009b
:103c8800000f780021479800cd02a9001e00780097
:103c98000000e00002003200cce2a800010037007a
:103ca800cce2a9002e4090000000fb0061006000fb
:103cb800004078000004e00002003200cc42a80076
:103cc80001003700cc42a9002e4090000000fb0004
:103cd800620060000000e00002003200cc62a80030
:103ce80001003700cc62a9002e4090000000fb00c4
:103cf800640060000000e00002003200cc82a800ee
:103d080001003700cc82a9002e4090000000fb0083
:103d1800680060000000e00002003200cca2a800a9
:103d280001003700cca2a90030002000a0ff070046
:103d3800cd02a800300020009dff0700cd02a90099
:103d4800300020009aff0700cc42a900cc62a900ed
:103d5800cc82a900cca2a9000080fa0000000600cd
:103d68000400fa00000f7800214798002e409000c8
:103d78000000fb004480de000040780080407800ae
:103d88001e007800bdff0700ae4090001e007800be
:103d9800baff07000080fa00000006000a00fa00d7
:103da800881f78002007980031079800420798007c
:103db8000000eb00000f78000040eb00204798005f
:103dc8002e00900080407800600020000008dd0090
:103dd800804078000174a0003e0090000040780008
:103de80000c0700030479800be4090000000eb0013
:103df800dbff07000000eb00000f78000900370028
:103e08001e007800ce0090000080400090407800ae
:103e180021479800ae40900010002000d0ff070016
:103e28001e0fe8001e0478004e009000b0f4070052
:103e3800800f5400f2ff39004f0478000080fa0028
:103e4800000006002400fa00889fbe00f502070063
:103e58000028ef0040e22100960107000080eb00f7
:103e68001040880000e0210036010700d901070052
:103e78008040880060df2100ea0107003000200050
:103e88004bff0700cd02a900cce2a900cc42a90053
:103e9800cc62a900cc82a900cca2a90021c0b300a1
:103ea8000000eb0075ff0700c1c2b3000000eb0083
:103eb800abff0700c1c2b3000000eb00a8ff07007a
:103ec800f1c0b3000000eb00a5ff070011c0b3006c
:103ed8000000eb00a2ff0700429629008000eb00db
:103ee8000000eb00adff07000000eb00000f7800ba
:103ef8006000b80020079800310798000000eb0028
:103f0800100798006000b800400798005107980013
:103f1800f10107000000eb0030020700fe01070076
:103f28000000eb00000f7800010037001e0fe800ca
:103f3800703e20009e007800808f5000fbff340008
:103f4800f9010700010037003802070017020700cf
:103f58000004a2000004e000fbff3a000f02070083
:103f6800600798006e0090008000eb0070f3070077
:103f780042e12a003312240007f307000200200060
:103f8800832c2400a7f20700200798003107980027
:103f98001e009000cf80de0062f307002e01900023
:103fa800be01900064f307000000e0001900320031
:103fb8002e009000be00900039f30700100798000b
:103fc800804080008000eb0059f307000004be0029
:103fd80002002000832c24002e009000be009000d8
:103fe800edf207000001be000800be00a7f30700bd
:103ff80040079800510798004e009000de0090009e
:1040080027f3070000007800a0408800a040800047
:1040180070088800a4408000834080006e0147003b
:104028002e009000be009000809fbe00841f780084
:10403800831f7800e0962900801f7800020078002e
:1040480082f40700ea8757006e00470000017800f5
:104058008000eb001000200050ff0700acff370085
:020000040000fa
:10406800120900000a000000020000008c1900007c
:104078000000000000000000000000001c09000013
:104088000a00000000000000160800000e000000f2
:1040980000000000d8080000200000000000000018
:1040a800240800000200000002000000ffff0000da
:1040b8002608000002000000000000002a09000095
:1040c80002000000000000002808000002000000b4
:1040d800000000002c0900000200000000000000a1
:1040e8002a0800000200000000000000000800008c
:1040f80016000000000000002e0900000200000069
:10410800000000002c080000020000000000000071
:104118002e080000880000000200000001000000d6
:104128000054080055085400085408005408540066
:104138000844080000000000000000000000000023
:104148000000000000000000000000000000000067
:104158000002080001017c00087d08007c087c0042
:10416800087c08007c086c000800000000000000c3
:104178000000000000000000000000000000000037
:10418800000000000000020008020200a408a500c8
:1041980008a40800a408a40008a4080094080000c3
:1041a8000000000000000000000000000000000007
:1041b8000000000000000000000000002e0856006b
:1041c800087e080000000000000000000000000059
:1041d80000000000f80800001a00000002000000bb
:1041e800686a6c00747a4c0000000100000200004c
:1041f8000400080000100000000020002b2d230000
:1042080030000000b6080000220000000200000094
:104218003031320033343500363738003941420006
:10422800434445004600300031323300343536000f
:104238003738390061626300646566000000000079
:1042480030090000020000000000000032090000f0
:10425800020000000200000004000000260900001f
:104268000400000000000000340900000200000003
:1042780002000000010000003609000002000000f2
:0842880000000000000000002e
:020000040000fa
:104290000000fa000621ef00700c20006008880082
:1042a0000000280080088800404180000000e000f5
:1042b00002003a00001a22002400070084e0a9004e
:1042c00094e0a800a09220008040eb000148780014
:1042d0000080fa00000006000200fa00000f7800db
:1042e0009e00780061088800a09220008040eb00ca
:1042f000014878000080fa00000006000000fa0083
:10430000600880000080fa00000006000200fa0049
:10431000000f78009e00780031088800a0922000ed
:104320008040eb00014878000080fa0000000600a1
:104330000000fa00300880000080fa00000006004b
:104340000000fa000080fa00000006000200fa00f7
:10435000000f780094e0a9009e0078004141880099
:1043600094e0a8000080fa00000006000000fa00b7
:10437000a09220008040eb000148780094e0a80063
:1043800011e1a8000080fa00000006000000fa0019
:1043900011e1a90094e0a9000080fa0000000600e5
:1043a0000200fa00a0922000104f78001e40780012
:1043b0000004e00003003200a09220008040eb00e7
:1043c000014878001e4078000080fa0000000600d6
:1043d0000000fa00b0922000104078000080fb003e
:1043e0000080fa00000006000000fa00b0922000f1
:1043f0008040eb00014878000080fa0000000600d1
:104400000000fa000021ef00f07c20001008880076
:104410000000280020088800504180000000e000d3
:1044200002003a0080252200240007008460a900d1
:104430009460a800c09220008040eb000148780002
:104440000080fa00000006000200fa00000f780069
:104450009e00780011088800c09220008040eb0088
:10446000014878000080fa00000006000000fa0011
:10447000100880000080fa00000006000200fa0028
:10448000000f78009e00780001088800c09220008c
:104490008040eb00014878000080fa000000060030
:1044a0000000fa00000880000080fa00000006000a
:1044b0000000fa000080fa00000006000200fa0086
:1044c000000f78009460a9009e0078005141880098
:1044d0009460a8000080fa00000006000000fa00c6
:1044e000c09220008040eb00014878009460a80052
:1044f00005e1a8000080fa00000006000000fa00b4
:1045000005e1a9009460a9000080fa0000000600ff
:104510000200fa00c0922000104f78001e40780080
:104520000004e00003003200c09220008040eb0055
:10453000014878001e4078000080fa000000060064
:104540000000fa00d0922000104078000080fb00ac
:104550000080fa00000006000000fa00d09220005f
:104560008040eb00014878000080fa00000006005f
:104570000000fa000a21ef00f07c2000700888009b
:104580000000280090088800604180000000e000e2
:1045900002003a0000312200240007008500a90033
:1045a0009500a800e09220008040eb0001487800d0
:1045b0000080fa00000006000200fa00000f7800f8
:1045c0009e00780071088800e09220008040eb0097
:1045d000014878000080fa00000006000000fa00a0
:1045e000700880000080fa00000006000200fa0057
:1045f000000f78009e00780051088800e0922000ab
:104600008040eb00014878000080fa0000000600be
:104610000000fa00500880000080fa000000060048
:104620000000fa000080fa00000006000200fa0014
:10463000000f78009500a9009e0078006141880075
:104640009500a8000080fa00000006000000fa00b3
:10465000e09220008040eb00014878009500a8001f
:1046600013e1a8000080fa00000006000000fa0034
:1046700013e1a9009500a9000080fa0000000600df
:104680000200fa00e0922000104f78001e407800ef
:104690000004e00003003200e09220008040eb00c4
:1046a000014878001e4078000080fa0000000600f3
:1046b0000000fa00f0922000104078000080fb001b
:1046c0000080fa00000006000000fa00f0922000ce
:1046d0008040eb00014878000080fa0000000600ee
:1046e0000000fa00400e2800001988000040200059
:1046f0001019880000f02900201988002823ef00f5
:104700001000200080198800101980004200de008f
:104710006f40600026e8b7000080fa000000060045
:104720000000fa002023a8000080fa000000060024
:104730000000fa002023a9000080fa000000060013
:104740000600fa00200798000030200010079800ab
:104750000000eb00000f78000b0037001e0078000f
:1047600000004000ae009000008040009e009000dd
:1047700091007800010878001e0090000080e80099
:10478000100798001e0fe80026c8bf000080fb003d
:104790009e0f5000f1ff3d001e0078000080fa00df
:1047a000000006000000fa00001880000080fa00f7
:1047b000000006000000fa000019800000407800a8
:1047c000614060000080fb0000f0a7000000ea00ec
:1047d0000000ea004f00de00004078000080fa0090
:1047e000000006000200fa00000f78009e0078002a
:1047f000411988000080fa00000006000200fa005b
:10480000000f78001e007800f6ff0700c4ff0700c5
:10481000c7ff070000000000e6ff07000004a20039
:104820000004e000fcff3a00deff07000080fa0011
:10483000000006000000fa0085a0a9000080fa0030
:10484000000006000000fa0055e6a8000080fa000b
:10485000000006000000fa005026ef0030012000a2
:10486000a0328800f7ff07000080fa000000060071
:104870000000fa00a03280004800de0061406000c5
:104880000080fb0000f0a7000000ea000000ea0042
:104890004f00de00004078000080fa0000000600b3
:1048a0000000fa00a03280004900de006140600094
:1048b0000080fb0000f0a7000000ea000000ea0012
:1048c0004f00de00004078000080fa000000060083
:1048d0000000fa005526a9000080fa00000006003a
:1048e0000000fa000080fa00000006000000fa0054
:1048f00030048000640060000000e000030032002b
:10490000f7ff0700f2ff07008640a9000080fa00c9
:10491000000006000000fa0000102300203a880082
:104920004827ef004e27ef007027ef007227ef00b7
:104930007427ef007627ef00720020008007200028
:10494000a109200033742000804978008149780053
:10495000824978000001eb0060042000710520000e
:1049600023742000804978008149780082497800ca
:104970000080fa00000006000000fa0041058000f7
:1049800080ff2f00008060000000a000400588002c
:1049900031058000f0ff28000080600000c0a0000a
:1049a0003005880021058000f0ff280000806000ad
:1049b00000c0a000200588000080fa00000006006a
:1049c0000000fa00c422ef00cc22ef0070012000aa
:1049d0000016880030c02e00401688006820ef00c6
:1049e0006a20ef00c622ef00ce22ef00c0032000b5
:1049f000601988000080fa00000006000200fa003a
:104a0000000f78009e00780021418800ffff3700ea
:104a10000000fa00808d200080077800008f2000c1
:104a2000000188000080fa00000006000000fa0083
:104a3000e3ff0700b7ff0700cfff070028ff0700cd
:104a400084ff0700fafb0700c9fe070010fe0700fd
:0c4a50006bfe07000080fa00000006006a
:020000040000fa
:04aff000ffff00005f
:020000040000fa
:04aff400fffc00005e
:020000040000fa
:04aff8009f7f000037
:020000040000fa
:04affc007f3f000093
:00000001FF
